{
  "contractName": "OnjiBank",
  "abi": [
    {
      "inputs": [
        {
          "internalType": "contract Token",
          "name": "_token",
          "type": "address"
        }
      ],
      "stateMutability": "nonpayable",
      "type": "constructor"
    },
    {
      "anonymous": false,
      "inputs": [
        {
          "indexed": true,
          "internalType": "address",
          "name": "user",
          "type": "address"
        },
        {
          "indexed": false,
          "internalType": "uint256",
          "name": "collateralEtherAmount",
          "type": "uint256"
        },
        {
          "indexed": false,
          "internalType": "uint256",
          "name": "borrowedTokenAmount",
          "type": "uint256"
        }
      ],
      "name": "Borrow",
      "type": "event"
    },
    {
      "anonymous": false,
      "inputs": [
        {
          "indexed": true,
          "internalType": "address",
          "name": "user",
          "type": "address"
        },
        {
          "indexed": false,
          "internalType": "uint256",
          "name": "etherAmount",
          "type": "uint256"
        },
        {
          "indexed": false,
          "internalType": "uint256",
          "name": "timeStart",
          "type": "uint256"
        }
      ],
      "name": "Deposit",
      "type": "event"
    },
    {
      "anonymous": false,
      "inputs": [
        {
          "indexed": true,
          "internalType": "address",
          "name": "user",
          "type": "address"
        },
        {
          "indexed": false,
          "internalType": "uint256",
          "name": "fee",
          "type": "uint256"
        }
      ],
      "name": "PayOff",
      "type": "event"
    },
    {
      "anonymous": false,
      "inputs": [
        {
          "indexed": true,
          "internalType": "address",
          "name": "user",
          "type": "address"
        },
        {
          "indexed": false,
          "internalType": "uint256",
          "name": "etherAmount",
          "type": "uint256"
        },
        {
          "indexed": false,
          "internalType": "uint256",
          "name": "depositTime",
          "type": "uint256"
        },
        {
          "indexed": false,
          "internalType": "uint256",
          "name": "interest",
          "type": "uint256"
        }
      ],
      "name": "Withdraw",
      "type": "event"
    },
    {
      "inputs": [],
      "name": "apy",
      "outputs": [
        {
          "internalType": "uint256",
          "name": "",
          "type": "uint256"
        }
      ],
      "stateMutability": "view",
      "type": "function",
      "constant": true
    },
    {
      "inputs": [
        {
          "internalType": "address",
          "name": "",
          "type": "address"
        }
      ],
      "name": "collateralEther",
      "outputs": [
        {
          "internalType": "uint256",
          "name": "",
          "type": "uint256"
        }
      ],
      "stateMutability": "view",
      "type": "function",
      "constant": true
    },
    {
      "inputs": [
        {
          "internalType": "address",
          "name": "",
          "type": "address"
        }
      ],
      "name": "depositStart",
      "outputs": [
        {
          "internalType": "uint256",
          "name": "",
          "type": "uint256"
        }
      ],
      "stateMutability": "view",
      "type": "function",
      "constant": true
    },
    {
      "inputs": [
        {
          "internalType": "address",
          "name": "",
          "type": "address"
        }
      ],
      "name": "depositedAmountOf",
      "outputs": [
        {
          "internalType": "uint256",
          "name": "",
          "type": "uint256"
        }
      ],
      "stateMutability": "view",
      "type": "function",
      "constant": true
    },
    {
      "inputs": [],
      "name": "deposit",
      "outputs": [],
      "stateMutability": "payable",
      "type": "function",
      "payable": true
    },
    {
      "inputs": [],
      "name": "withdraw",
      "outputs": [],
      "stateMutability": "nonpayable",
      "type": "function"
    },
    {
      "inputs": [],
      "name": "borrow",
      "outputs": [],
      "stateMutability": "payable",
      "type": "function",
      "payable": true
    },
    {
      "inputs": [],
      "name": "payOff",
      "outputs": [],
      "stateMutability": "nonpayable",
      "type": "function"
    }
  ],
  "bytecode": "0x6080604052600a6004553480156200001657600080fd5b50604051620014a3380380620014a383398181016040528101906200003c91906200009a565b806000806101000a81548173ffffffffffffffffffffffffffffffffffffffff021916908373ffffffffffffffffffffffffffffffffffffffff1602179055505062000133565b600081519050620000948162000119565b92915050565b600060208284031215620000b357620000b262000114565b5b6000620000c38482850162000083565b91505092915050565b6000620000d982620000f4565b9050919050565b6000620000ed82620000cc565b9050919050565b600073ffffffffffffffffffffffffffffffffffffffff82169050919050565b600080fd5b6200012481620000e0565b81146200013057600080fd5b50565b61136080620001436000396000f3fe60806040526004361061007b5760003560e01c8063d0e30db01161004e578063d0e30db014610116578063e68d356914610120578063f8d60d431461012a578063ff87930a146101675761007b565b80633bcfc4b8146100805780633ccfd60b146100ab5780633fac68d5146100c257806375a40d2a146100d9575b600080fd5b34801561008c57600080fd5b506100956101a4565b6040516100a29190610f9b565b60405180910390f35b3480156100b757600080fd5b506100c06101aa565b005b3480156100ce57600080fd5b506100d7610524565b005b3480156100e557600080fd5b5061010060048036038101906100fb9190610cee565b610857565b60405161010d9190610f9b565b60405180910390f35b61011e61086f565b005b610128610a15565b005b34801561013657600080fd5b50610151600480360381019061014c9190610cee565b610c94565b60405161015e9190610f9b565b60405180910390f35b34801561017357600080fd5b5061018e60048036038101906101899190610cee565b610cac565b60405161019b9190610f9b565b60405180910390f35b60045481565b6000600260003373ffffffffffffffffffffffffffffffffffffffff1673ffffffffffffffffffffffffffffffffffffffff168152602001908152602001600020541161022c576040517f08c379a000000000000000000000000000000000000000000000000000000000815260040161022390610f1b565b60405180910390fd5b6000600260003373ffffffffffffffffffffffffffffffffffffffff1673ffffffffffffffffffffffffffffffffffffffff1681526020019081526020016000205490506000600160003373ffffffffffffffffffffffffffffffffffffffff1673ffffffffffffffffffffffffffffffffffffffff16815260200190815260200160002054426102bd91906110b2565b9050600063bc191380600454600260003373ffffffffffffffffffffffffffffffffffffffff1673ffffffffffffffffffffffffffffffffffffffff168152602001908152602001600020546103139190611058565b61031d9190611027565b90506000828261032d9190611058565b90503373ffffffffffffffffffffffffffffffffffffffff166108fc600260003373ffffffffffffffffffffffffffffffffffffffff1673ffffffffffffffffffffffffffffffffffffffff168152602001908152602001600020549081150290604051600060405180830381858888f193505050501580156103b4573d6000803e3d6000fd5b5060008054906101000a900473ffffffffffffffffffffffffffffffffffffffff1673ffffffffffffffffffffffffffffffffffffffff166340c10f1933836040518363ffffffff1660e01b8152600401610410929190610e92565b600060405180830381600087803b15801561042a57600080fd5b505af115801561043e573d6000803e3d6000fd5b505050506000600160003373ffffffffffffffffffffffffffffffffffffffff1673ffffffffffffffffffffffffffffffffffffffff168152602001908152602001600020819055506000600260003373ffffffffffffffffffffffffffffffffffffffff1673ffffffffffffffffffffffffffffffffffffffff168152602001908152602001600020819055503373ffffffffffffffffffffffffffffffffffffffff167f02f25270a4d87bea75db541cdfe559334a275b4a233520ed6c0a2429667cca9485858460405161051693929190610fdf565b60405180910390a250505050565b6000600360003373ffffffffffffffffffffffffffffffffffffffff1673ffffffffffffffffffffffffffffffffffffffff1681526020019081526020016000205414156105a7576040517f08c379a000000000000000000000000000000000000000000000000000000000815260040161059e90610f3b565b60405180910390fd5b60008054906101000a900473ffffffffffffffffffffffffffffffffffffffff1673ffffffffffffffffffffffffffffffffffffffff166323b872dd33306002600360003373ffffffffffffffffffffffffffffffffffffffff1673ffffffffffffffffffffffffffffffffffffffff168152602001908152602001600020546106319190611027565b6040518463ffffffff1660e01b815260040161064f93929190610e5b565b602060405180830381600087803b15801561066957600080fd5b505af115801561067d573d6000803e3d6000fd5b505050506040513d601f19601f820116820180604052508101906106a19190610d1b565b6106e0576040517f08c379a00000000000000000000000000000000000000000000000000000000081526004016106d790610efb565b60405180910390fd5b6000600a600360003373ffffffffffffffffffffffffffffffffffffffff1673ffffffffffffffffffffffffffffffffffffffff1681526020019081526020016000205461072e9190611027565b90503373ffffffffffffffffffffffffffffffffffffffff166108fc82600360003373ffffffffffffffffffffffffffffffffffffffff1673ffffffffffffffffffffffffffffffffffffffff1681526020019081526020016000205461079591906110b2565b9081150290604051600060405180830381858888f193505050501580156107c0573d6000803e3d6000fd5b506000600360003373ffffffffffffffffffffffffffffffffffffffff1673ffffffffffffffffffffffffffffffffffffffff168152602001908152602001600020819055503373ffffffffffffffffffffffffffffffffffffffff167ffd9bbd044fa427970e4d882ebbb4a89ce422dc29b23f2777a14a93ecdf42c6448260405161084c9190610f9b565b60405180910390a250565b60036020528060005260406000206000915090505481565b6000600260003373ffffffffffffffffffffffffffffffffffffffff1673ffffffffffffffffffffffffffffffffffffffff16815260200190815260200160002054146108f1576040517f08c379a00000000000000000000000000000000000000000000000000000000081526004016108e890610f5b565b60405180910390fd5b662386f26fc1000034101561093b576040517f08c379a000000000000000000000000000000000000000000000000000000000815260040161093290610edb565b60405180910390fd5b34600260003373ffffffffffffffffffffffffffffffffffffffff1673ffffffffffffffffffffffffffffffffffffffff1681526020019081526020016000208190555042600160003373ffffffffffffffffffffffffffffffffffffffff1673ffffffffffffffffffffffffffffffffffffffff168152602001908152602001600020819055503373ffffffffffffffffffffffffffffffffffffffff167f90890809c654f11d6e72a28fa60149770a0d11ec6c92319d6ceb2bb0a4ea1a153442604051610a0b929190610fb6565b60405180910390a2565b662386f26fc10000341015610a5f576040517f08c379a0000000000000000000000000000000000000000000000000000000008152600401610a5690610f7b565b60405180910390fd5b6000600360003373ffffffffffffffffffffffffffffffffffffffff1673ffffffffffffffffffffffffffffffffffffffff1681526020019081526020016000205414610ae1576040517f08c379a0000000000000000000000000000000000000000000000000000000008152600401610ad890610ebb565b60405180910390fd5b34600360003373ffffffffffffffffffffffffffffffffffffffff1673ffffffffffffffffffffffffffffffffffffffff1681526020019081526020016000208190555060006002600360003373ffffffffffffffffffffffffffffffffffffffff1673ffffffffffffffffffffffffffffffffffffffff16815260200190815260200160002054610b739190611027565b905060008054906101000a900473ffffffffffffffffffffffffffffffffffffffff1673ffffffffffffffffffffffffffffffffffffffff166340c10f1933836040518363ffffffff1660e01b8152600401610bd0929190610e92565b600060405180830381600087803b158015610bea57600080fd5b505af1158015610bfe573d6000803e3d6000fd5b505050503373ffffffffffffffffffffffffffffffffffffffff167fe1979fe4c35e0cef342fef5668e2c8e7a7e9f5d5d1ca8fee0ac6c427fa4153af600360003373ffffffffffffffffffffffffffffffffffffffff1673ffffffffffffffffffffffffffffffffffffffff1681526020019081526020016000205483604051610c89929190610fb6565b60405180910390a250565b60026020528060005260406000206000915090505481565b60016020528060005260406000206000915090505481565b600081359050610cd3816112fc565b92915050565b600081519050610ce881611313565b92915050565b600060208284031215610d0457610d0361118c565b5b6000610d1284828501610cc4565b91505092915050565b600060208284031215610d3157610d3061118c565b5b6000610d3f84828501610cd9565b91505092915050565b610d51816110e6565b82525050565b6000610d64601983611016565b9150610d6f82611191565b602082019050919050565b6000610d87602283611016565b9150610d92826111ba565b604082019050919050565b6000610daa601b83611016565b9150610db582611209565b602082019050919050565b6000610dcd601a83611016565b9150610dd882611232565b602082019050919050565b6000610df0601683611016565b9150610dfb8261125b565b602082019050919050565b6000610e13601d83611016565b9150610e1e82611284565b602082019050919050565b6000610e36602583611016565b9150610e41826112ad565b604082019050919050565b610e5581611124565b82525050565b6000606082019050610e706000830186610d48565b610e7d6020830185610d48565b610e8a6040830184610e4c565b949350505050565b6000604082019050610ea76000830185610d48565b610eb46020830184610e4c565b9392505050565b60006020820190508181036000830152610ed481610d57565b9050919050565b60006020820190508181036000830152610ef481610d7a565b9050919050565b60006020820190508181036000830152610f1481610d9d565b9050919050565b60006020820190508181036000830152610f3481610dc0565b9050919050565b60006020820190508181036000830152610f5481610de3565b9050919050565b60006020820190508181036000830152610f7481610e06565b9050919050565b60006020820190508181036000830152610f9481610e29565b9050919050565b6000602082019050610fb06000830184610e4c565b92915050565b6000604082019050610fcb6000830185610e4c565b610fd86020830184610e4c565b9392505050565b6000606082019050610ff46000830186610e4c565b6110016020830185610e4c565b61100e6040830184610e4c565b949350505050565b600082825260208201905092915050565b600061103282611124565b915061103d83611124565b92508261104d5761104c61115d565b5b828204905092915050565b600061106382611124565b915061106e83611124565b9250817fffffffffffffffffffffffffffffffffffffffffffffffffffffffffffffffff04831182151516156110a7576110a661112e565b5b828202905092915050565b60006110bd82611124565b91506110c883611124565b9250828210156110db576110da61112e565b5b828203905092915050565b60006110f182611104565b9050919050565b60008115159050919050565b600073ffffffffffffffffffffffffffffffffffffffff82169050919050565b6000819050919050565b7f4e487b7100000000000000000000000000000000000000000000000000000000600052601160045260246000fd5b7f4e487b7100000000000000000000000000000000000000000000000000000000600052601260045260246000fd5b600080fd5b7f4572726f722c206c6f616e20616c72656164792074616b656e00000000000000600082015250565b7f4572726f722c206465706f736974206d757374206265203e3d20302e3031204560008201527f5448000000000000000000000000000000000000000000000000000000000000602082015250565b7f4572726f722c2063616e2774207265636569766520746f6b656e730000000000600082015250565b7f4572726f722c206e6f2070726576696f7573206465706f736974000000000000600082015250565b7f4572726f722c206c6f616e206e6f742061637469766500000000000000000000600082015250565b7f4572726f722c206465706f73697420616c726561647920616374697665000000600082015250565b7f4572726f722c20636f6c6c61746572616c206d757374206265203e3d20302e3060008201527f3120455448000000000000000000000000000000000000000000000000000000602082015250565b611305816110e6565b811461131057600080fd5b50565b61131c816110f8565b811461132757600080fd5b5056fea2646970667358221220e14460490b6317685f9ad06e23348f3e8216e648eb42ecbf3c007140f3d1e53964736f6c63430008050033",
  "immutableReferences": {},
  "source": "// SPDX-License-Identifier: MIT\r\npragma solidity ^0.8.0;\r\n\r\nimport \"./Token.sol\";\r\n\r\ncontract OnjiBank {\r\n    Token private token;\r\n\r\n    mapping(address => uint256) public depositStart;\r\n    mapping(address => uint256) public depositedAmountOf;\r\n    mapping(address => uint256) public collateralEther;\r\n    uint256 public apy = 10;\r\n\r\n    event Deposit(address indexed user, uint256 etherAmount, uint256 timeStart);\r\n    event Withdraw(\r\n        address indexed user,\r\n        uint256 etherAmount,\r\n        uint256 depositTime,\r\n        uint256 interest\r\n    );\r\n    event Borrow(\r\n        address indexed user,\r\n        uint256 collateralEtherAmount,\r\n        uint256 borrowedTokenAmount\r\n    );\r\n    event PayOff(address indexed user, uint256 fee);\r\n\r\n    constructor(Token _token) {\r\n        token = _token;\r\n    }\r\n\r\n    function deposit() public payable {\r\n        require(\r\n            depositedAmountOf[msg.sender] == 0,\r\n            \"Error, deposit already active\"\r\n        );\r\n        require(msg.value >= 1e16, \"Error, deposit must be >= 0.01 ETH\");\r\n\r\n        depositedAmountOf[msg.sender] = msg.value;\r\n        depositStart[msg.sender] = block.timestamp;\r\n\r\n        emit Deposit(msg.sender, msg.value, block.timestamp);\r\n    }\r\n\r\n    function withdraw() public {\r\n        require(\r\n            depositedAmountOf[msg.sender] > 0,\r\n            \"Error, no previous deposit\"\r\n        );\r\n        uint256 userBalance = depositedAmountOf[msg.sender]; //for event\r\n\r\n        //Time for which the staking is done\r\n        uint256 depositTime = block.timestamp - depositStart[msg.sender];\r\n\r\n        //  Interest per second for 10% APY\r\n        uint256 interestPerSecond =\r\n            ((depositedAmountOf[msg.sender] *apy) / (100 * (365 days + 6 hours)));\r\n        uint256 interest = interestPerSecond * depositTime;\r\n\r\n        //send funds to user\r\n        payable(msg.sender).transfer(depositedAmountOf[msg.sender]); //eth back to user\r\n        token.mint(msg.sender, interest); //interest to user\r\n\r\n        //reset depositer data\r\n        depositStart[msg.sender] = 0;\r\n        depositedAmountOf[msg.sender] = 0;\r\n\r\n        emit Withdraw(msg.sender, userBalance, depositTime, interest);\r\n    }\r\n\r\n    function borrow() public payable {\r\n        require(msg.value >= 1e16, \"Error, collateral must be >= 0.01 ETH\");\r\n        require(collateralEther[msg.sender] == 0, \"Error, loan already taken\");\r\n\r\n        //this Ether will be locked till user payOff the loan\r\n        collateralEther[msg.sender] = msg.value;\r\n\r\n        //calc tokens amount to mint, 50% of msg.value\r\n        uint256 tokensToMint = collateralEther[msg.sender] / 2;\r\n\r\n        //mint&send tokens to user\r\n        token.mint(msg.sender, tokensToMint);\r\n\r\n        emit Borrow(msg.sender, collateralEther[msg.sender], tokensToMint);\r\n    }\r\n\r\n    function payOff() public {\r\n        require(collateralEther[msg.sender] != 0, \"Error, loan not active\");\r\n        require(\r\n            token.transferFrom(\r\n                msg.sender,\r\n                address(this),\r\n                collateralEther[msg.sender] / 2\r\n            ),\r\n            \"Error, can't receive tokens\"\r\n        ); //must approve dBank 1st\r\n\r\n        uint256 fee = collateralEther[msg.sender] / 10; //calc 10% fee\r\n\r\n        //send user's collateral minus fee\r\n        payable(msg.sender).transfer(collateralEther[msg.sender] - fee);\r\n\r\n        //reset borrower's data\r\n        collateralEther[msg.sender] = 0; \r\n\r\n        emit PayOff(msg.sender, fee);\r\n    }\r\n}\r\n",
  "sourcePath": "/home/incrypto/dev/blockchain/dbank/src/contracts/OnjiBank.sol",
  "compiler": {
    "name": "solc",
    "version": "0.8.5+commit.a4f2e591.Emscripten.clang"
  },
  "schemaVersion": "3.4.1",
  "updatedAt": "2021-06-20T06:17:31.610Z",
  "networkType": "ethereum",
  "devdoc": {
    "kind": "dev",
    "methods": {},
    "version": 1
  },
  "userdoc": {
    "kind": "user",
    "methods": {},
    "version": 1
  }
}